:020000040800F2
:10000000680600202902000875050008930300080F
:1000100071050008E3020008F50600080000000072
:10002000000000000000000000000000990500082A
:10003000E7020008000000007705000889060008B4
:10004000430200084302000843020008430200087C
:10005000430200084302000843020008430200086C
:10006000430200084302000843020008430200085C
:10007000430200084302000843020008430200084C
:10008000430200084302000843020008430200083C
:10009000430200084302000843020008430200082C
:1000A000430200084302000843020008430200081C
:1000B000430200084302000843020008430200080C
:1000C00043020008430200084302000843020008FC
:1000D00043020008430200084302000843020008EC
:1000E00043020008430200084302000843020008DC
:1000F00043020008430200084302000843020008CC
:1001000043020008430200084302000843020008BB
:1001100043020008430200084302000843020008AB
:10012000430200084302000843020008430200089B
:10013000430200084302000843020008430200088B
:10014000430200084302000843020008430200087B
:10015000430200084302000843020008430200086B
:10016000430200084302000843020008430200085B
:10017000430200084302000843020008430200084B
:10018000430200084302000800F002F800F03CF8C7
:100190000AA090E8000C82448344AAF10107DA45E2
:1001A00001D100F031F8AFF2090EBAE80F0013F0F8
:1001B000010F18BFFB1A43F001031847C4050000E4
:1001C000E4050000103A24BF78C878C1FAD8520775
:1001D00024BF30C830C144BF04680C6070470000C1
:1001E0000023002400250026103A28BF78C1FBD840
:1001F000520728BF30C148BF0B6070471FB500F0E1
:10020000B9FA1FBD10B510BD00F031F81146FFF767
:10021000F5FF00F07FFA00F04FF803B4FFF7F2FFAC
:1002200003BC00F057F80000094880470948004720
:10023000FEE7FEE7FEE7FEE7FEE7FEE7FEE7FEE796
:10024000FEE7FEE704480549054A064B70470000F3
:100250008D0600088901000868000020680600205B
:10026000680200206802002070477047704775469A
:1002700000F02CF8AE4605006946534620F0070012
:10028000854618B020B5FFF7DDFFBDE820404FF0F0
:1002900000064FF000074FF000084FF0000B21F070
:1002A0000701AC46ACE8C009ACE8C009ACE8C0093D
:1002B000ACE8C0098D46704710B50446AFF3008026
:1002C0002046BDE81040FFF7A8BF00000048704777
:1002D0000400002001491820ABBEFEE72600020002
:1002E000704700BFFEE77047F0B50A4600210023C3
:1002F000002400BF3DE0012505FA01F3156805EA79
:1003000003049C4234D105684F000326BE40B54328
:10031000056015794E00B5400668354305601579CE
:10032000012D02D01579022D16D185684F000326C4
:10033000BE40B543856055794E00B540866835436B
:100340008560456801268E40B543456045689679CD
:100350008E40B6B235434560C5684F000326BE40A7
:10036000B543C560D5794E00B540C6683543C56014
:10037000491C1029BFD3F0BD0246002013690B4071
:100380000BB1012000E000207047418370470183DA
:10039000704700BFFEE700001CB50121102000F0EF
:1003A000EBF80121084600F0E7F81C20009000203F
:1003B0008DF8040003208DF8050000208DF806005C
:1003C00001208DF8070069460A48FFF78DFF0120DC
:1003D000009000208DF8040003208DF80500002017
:1003E0008DF8060002208DF8070069460248FFF7E5
:1003F0007BFF1CBD001002400000024010B54FF012
:10040000FF3410213148FFF7B7FF90B9142000F0F6
:1004100073F910212D48FFF7AFFF50B900BF10212D
:100420002A48FFF7A9FF0128F9D0142000F064F949
:10043000002408212548FFF79FFF90B9142000F001
:100440005BF908212148FFF797FF50B900BF082149
:100450001E48FFF791FF0128F9D0142000F04CF955
:10046000012404211948FFF787FF90B9142000F0F8
:1004700043F904211548FFF77FFF50B900BF04215D
:100480001248FFF779FF0128F9D0142000F034F961
:10049000022401210E48FFF76FFF012813D1142019
:1004A00000F02AF901210A48FFF766FF01280AD166
:1004B00000BF01210648FFF75FFF0028F9D0142094
:1004C00000F01AF90324204610BD0000001002407D
:1004D0000000024010B54FF480610248FFF757FF5B
:1004E00010BD00000014024010B54FF480610248B6
:1004F000FFF74BFF10BD0000001402401CB50121A6
:10050000202000F039F84FF4C060009001208DF8F1
:10051000040003208DF8050000208DF8060001205E
:100520008DF8070069460748FFF7DEFE4FF40071BB
:100530000448FFF72CFF4FF480610248FFF727FFC4
:100540001CBD00000014024010B54FF400710248B9
:10055000FFF71DFF10BD00000014024010B54FF45E
:1005600000710248FFF711FF10BD000000140240A7
:1005700000BFFEE77047704729B1064A1268024380
:10058000044B1A6004E0034A12688243014B1A606C
:100590007047000030380240704700000CB5002062
:1005A000019000903448006840F48030324908607F
:1005B00000BF3148006800F4003000900198401CF2
:1005C0000190009818B90198B0F5A04FF1D12A48D0
:1005D000006800F4003010B10120009001E000201C
:1005E00000900098012846D123484030006840F030
:1005F00080502149403108602048006840F4404064
:100600001E4908601C48083000681B490831086012
:100610000846006840F4004008600846006840F45E
:10062000A05008601648091F0860081F006840F0C5
:100630008070091F086000BF0F48006800F000705C
:100640000028F9D040F205700E4908600A480830C9
:10065000006820F003000849083108600846006877
:1006600040F00200086000BF03480830006800F056
:100670000C000828F8D10CBD003802400070004082
:1006800008544007003C02407047000010B5154870
:10069000006840F47000134908601348006840F097
:1006A00001001149086000200F49083108600E4818
:1006B00000680E4908400C4908600D48091D086093
:1006C000081F006820F48020091F086000200649E8
:1006D0000C310860FFF762FF4FF00060014980397C
:1006E000086010BD88ED00E000380240FFFFF6FE14
:1006F0001030002400BFFEE7002107E0002200E0E8
:10070000521C48F240339A42FAD3491C8142F5D335
:1007100070470000FFF7F2FEFFF73EFEFFF714FF01
:10072000FFF7D8FE22E0FFF769FE1149087008467E
:10073000007818B9FFF708FFFFF7D6FE0C480078DD
:10074000012803D1FFF70AFFFFF7C4FE084800782D
:10075000022803D1FFF7F8FEFFF7BCFE044800783B
:10076000032803D1FFF7FAFEFFF7BEFEDBE7000028
:10077000000000204FF04070E1EE100A70470000CA
:10078000A00700080000002004000000C4010008C9
:10079000A40700080400002064060000E00100082F
:0407A0000000000055
:0400000508000229C4
:00000001FF
