:020000040800F2
:10000000680600202902000899050008A5030008D9
:1000100095050008E3020008190700080000000029
:10002000000000000000000000000000BD05000806
:10003000E7020008000000009B050008AD0600086C
:10004000430200084302000843020008430200087C
:10005000430200084302000843020008430200086C
:10006000430200084302000843020008430200085C
:10007000430200084302000843020008430200084C
:10008000430200084302000843020008430200083C
:10009000430200084302000843020008430200082C
:1000A000430200084302000843020008430200081C
:1000B000430200084302000843020008430200080C
:1000C00043020008430200084302000843020008FC
:1000D00043020008430200084302000843020008EC
:1000E00043020008430200084302000843020008DC
:1000F00043020008430200084302000843020008CC
:1001000043020008430200084302000843020008BB
:1001100043020008430200084302000843020008AB
:10012000430200084302000843020008430200089B
:10013000430200084302000843020008430200088B
:10014000430200084302000843020008430200087B
:10015000430200084302000843020008430200086B
:10016000430200084302000843020008430200085B
:10017000430200084302000843020008430200084B
:10018000430200084302000800F002F800F03CF8C7
:100190000AA090E8000C82448344AAF10107DA45E2
:1001A00001D100F031F8AFF2090EBAE80F0013F0F8
:1001B000010F18BFFB1A43F001031847FC050000AC
:1001C0001C060000103A24BF78C878C1FAD852073C
:1001D00024BF30C830C144BF04680C6070470000C1
:1001E0000023002400250026103A28BF78C1FBD840
:1001F000520728BF30C148BF0B6070471FB500F0E1
:10020000D5FA1FBD10B510BD00F031F81146FFF74B
:10021000F5FF00F091FA00F04FF803B4FFF7F2FF9A
:1002200003BC00F057F80000094880470948004720
:10023000FEE7FEE7FEE7FEE7FEE7FEE7FEE7FEE796
:10024000FEE7FEE704480549054A064B70470000F3
:10025000B106000889010008680000206806002037
:10026000680200206802002070477047704775469A
:1002700000F02CF8AE4605006946534620F0070012
:10028000854618B020B5FFF7DDFFBDE820404FF0F0
:1002900000064FF000074FF000084FF0000B21F070
:1002A0000701AC46ACE8C009ACE8C009ACE8C0093D
:1002B000ACE8C0098D46704710B50446AFF3008026
:1002C0002046BDE81040FFF7A8BF00000048704777
:1002D0000400002001491820ABBEFEE72600020002
:1002E000704700BFFEE77047F0B50A4600210023C3
:1002F000002400BF3DE0012505FA01F3156805EA79
:1003000003049C4234D105684F000326BE40B54328
:10031000056015794E00B5400668354305601579CE
:10032000012D02D01579022D16D185684F000326C4
:10033000BE40B543856055794E00B540866835436B
:100340008560456801268E40B543456045689679CD
:100350008E40B6B235434560C5684F000326BE40A7
:10036000B543C560D5794E00B540C6683543C56014
:10037000491C1029BFD3F0BD0246002013690B4071
:100380000BB1012000E000207047024600205369B5
:100390000B400BB1012000E0002070474183704703
:1003A0000183704700BFFEE71CB50121102000F05B
:1003B000F5F80121084600F0F1F81C20009000201B
:1003C0008DF8040003208DF8050000208DF806004C
:1003D00001208DF8070069460A48FFF785FF0120D4
:1003E000009000208DF8040003208DF80500002007
:1003F0008DF8060002208DF8070069460248FFF7D5
:1004000073FF1CBD001002400000024010B54FF009
:10041000FF3410213148FFF7AFFF90B9142000F0EE
:100420007DF910212D48FFF7A7FF50B900BF10211B
:100430002A48FFF7A1FF0028F9D0142000F06EF938
:10044000002408212548FFF797FF90B9142000F0F9
:1004500065F908212148FFF78FFF50B900BF082137
:100460001E48FFF789FF0028F9D0142000F056F944
:10047000012404211948FFF77FFF90B9142000F0F0
:100480004DF904211548FFF777FF50B900BF04214B
:100490001248FFF771FF0028F9D0142000F03EF950
:1004A000022401210E48FFF767FF012813D1142011
:1004B00000F034F901210A48FFF75EFF01280AD154
:1004C00000BF01210648FFF757FF0128F9D014208B
:1004D00000F024F90324204610BD00000010024063
:1004E0000000024010B54FF480610248FFF758FF4A
:1004F00010BD00000014024010B54FF480610248A6
:10050000FFF74CFF10BD00000014024010B54FF47F
:1005100080610248FFF739FF10BD0000001402405F
:100520001CB50121202000F039F84FF4C060009084
:1005300001208DF8040003208DF8050000208DF8BF
:10054000060001208DF8070069460748FFF7CCFE3A
:100550004FF400710448FFF723FF4FF48061024815
:10056000FFF71EFF1CBD00000014024010B54FF441
:1005700000710248FFF714FF10BD00000014024094
:1005800010B54FF400710248FFF708FF10BD0000DE
:100590000014024000BFFEE77047704729B1064AC9
:1005A00012680243044B1A6004E0034A1268824353
:1005B000014B1A607047000030380240704700005D
:1005C0000CB50020019000903448006840F4803061
:1005D0003249086000BF3148006800F400300090E4
:1005E0000198401C0190009818B90198B0F5A04FEF
:1005F000F1D12A48006800F4003010B101200090C9
:1006000001E0002000900098012846D123484030A6
:10061000006840F08050214940310860204800685F
:1006200040F440401E4908601C48083000681B49DF
:10063000083108600846006840F400400860084639
:10064000006840F4A05008601648091F0860081FA1
:10065000006840F08070091F086000BF0F48006804
:1006600000F000700028F9D040F205700E490860D3
:100670000A480830006820F0030008490831086083
:100680000846006840F00200086000BF03480830D8
:10069000006800F00C000828F8D10CBD00380240BA
:1006A0000070004008544007003C024070470000C2
:1006B00010B51548006840F47000134908601348ED
:1006C000006840F001001149086000200F4908311E
:1006D00008600E4800680E4908400C4908600D4843
:1006E000091D0860081F006820F48020091F0860A9
:1006F000002006490C310860FFF762FF4FF00060F0
:1007000001498039086010BD88ED00E000380240E2
:10071000FFFFF6FE1030002400BFFEE7002107E0D7
:10072000002200E0521C48F240339A42FAD3491C9E
:100730008142F5D370470000FFF7F2FEFFF734FE69
:10074000FFF714FFFFF7CEFE2CE0FFF75FFE164920
:1007500008700846007818B9FFF708FFFFF7CCFECD
:1007600011480078012803D1FFF70AFFFFF7BAFE0E
:100770000D48007802280DD1FFF7C8FE044624B9C1
:10078000FFF7FEFEFFF7AEFE03E0FFF7EFFEFFF719
:10079000B3FE00BF04480078032803D1FFF7F0FE42
:1007A000FFF7AAFED1E70000000000204FF04070E4
:1007B000E1EE100A70470000D80700080000002092
:1007C00004000000C4010008DC0700080400002049
:0C07D00064060000E001000800000000CA
:0400000508000229C4
:00000001FF
